:020000021000EC
:10F000000C9466F80C9486F80C9486F80C9486F8A8
:10F010000C9486F80C9486F80C9486F80C9486F878
:10F020000C9486F80C9486F80C9486F80C9486F868
:10F030000C9486F80C9486F80C9486F80C9486F858
:10F040000C9486F80C9486F80C9486F80C9486F848
:10F050000C9486F80C9486F80C9486F80C9486F838
:10F060000C9486F80C9486F80C9486F80C9486F828
:10F070000C9486F80C9486F80C9486F80C9486F818
:10F080000C9486F80C9486F80C9486F80C9486F808
:10F090000C9486F80C9486F80C9486F80C9486F8F8
:10F0A0000C9486F80C9486F80C9486F80C9486F8E8
:10F0B0000C9486F80C9486F80C9486F80C9486F8D8
:10F0C0000C9486F80C9486F80C9486F811241FBED4
:10F0D000CFEFD1E2DEBFCDBF12E0A0E0B2E0E0E4CE
:10F0E000F8EF01E00BBF02C007900D92A230B1070C
:10F0F000D9F71BBE13E0A2E0B2E001C01D92AD3013
:10F10000B107E1F70E949FF90C941EFC0C9400F8E3
:10F1100090910502913019F0923041F0089590914C
:10F12000C00095FFFCCF8093C60008959091C80061
:10F1300095FFFCCF8093CE000895CF93982F95959F
:10F14000959595959595905DC82FCF70CA304CF4E4
:10F15000C05D892F0E9488F88C2F0E9488F8CF917B
:10F160000895C95A892F0E9488F88C2F0E9488F828
:10F17000CF910895CF92DF92EF92FF928091050296
:10F18000813069F1823031F080E0FF90EF90DF90C4
:10F19000CF900895CC24DD2476018091C80087FDAE
:10F1A00017C00894C11CD11CE11CF11C81E0C816D9
:10F1B00088E0D80687E0E80680E0F80670F3E09182
:10F1C0000202F091030209958091C80087FFE9CF00
:10F1D0008091CE00FF90EF90DF90CF900895CC24E7
:10F1E000DD2476018091C00087FD17C00894C11C02
:10F1F000D11CE11CF11C81E0C81688E0D80687E02C
:10F20000E80680E0F80670F3E0910202F091030254
:10F2100009958091C00087FFE9CF8091C600FF90DB
:10F22000EF90DF90CF900895CF930E94BAF8C82F47
:10F230000E9488F8C13634F4C0330CF0C0538C2FD0
:10F24000CF910895C7558C2FCF910895CF930E94E9
:10F2500014F9C82F0E9414F9C295C07F8C0FCF916A
:10F26000089520910502882339F0213031F02230B1
:10F2700061F081508823C9F708959091C00097FFED
:10F28000FCCF9091C6008150F5CF9091C80097FFB8
:10F29000FCCF9091CE008150EDCFCF93C82F0E942C
:10F2A000BAF8803281F0809104028F5F809304026B
:10F2B000853011F0CF910895E0910202F0910302A0
:10F2C0000995CF91089584E10E9488F88C2F0E94BF
:10F2D00088F880E10E9488F8EDCF0E94BAF8803269
:10F2E00071F0809104028F5F80930402853009F0F1
:10F2F0000895E0910202F09103020995089584E1D6
:10F300000E9488F880E10E9488F8089515C0A09AAC
:10F310002FEF3FE342E0215030404040E1F700C092
:10F320000000A0982FEF3FE342E0215030404040E2
:10F33000E1F700C000008150882349F708950000DC
:10F3400081E08093050287E08093C4001092C5009D
:10F350001092C00086E08093C20088E18093C100D3
:10F360006898709A989A85E001C0892FA09A2FEF2B
:10F370003FE342E0215030404040E1F700C0000050
:10F38000A0982FEF3FE342E0215030404040E1F7AA
:10F3900000C00000982F9150882339F70E94BAF8D6
:10F3A0008033B1F18133B9F1803409F454C0813430
:10F3B00009F45AC0823409F469C0853409F46CC078
:10F3C000803531F1823521F1813511F1853509F42E
:10F3D00069C0863509F471C0843609F47AC084376F
:10F3E00009F4E2C0853709F440C1863709F44AC000
:10F3F000809104028F5F80930402853079F6E0915A
:10F400000202F091030209950E94BAF8803351F686
:10F410000E946DF9C3CF0E94BAF8803249F784E1A7
:10F420000E9488F881E40E9488F886E50E9488F8A6
:10F4300082E50E9488F880E20E9488F889E40E94B0
:10F4400088F883E50E9488F880E50E9488F880E1CA
:10F450000E9488F8A3CF0E94BAF88638C8F20E94AA
:10F46000BAF80E946DF99ACF0E94BAF8803809F470
:10F4700015C1813809F416C1823809F417C18839D9
:10F4800009F408C180E00E944DF988CF84E10E9410
:10F4900031F90E946DF982CF85E00E9431F90E9416
:10F4A0006DF97CCF0E94BAF8809306020E94BAF8E8
:10F4B000809307020E946DF971CF0E94BAF88033E1
:10F4C00009F406C183E00E9431F980E00E944DF901
:10F4D00065CF0E94BAF8809309030E94BAF880931E
:10F4E000080380910C038E7F80930C030E94BAF86E
:10F4F000853409F4FEC080910803909109030097B8
:10F50000A1F068E0E62E62E0F62E00E010E00E9436
:10F51000BAF8F70181937F010F5F1F4F80910803B5
:10F52000909109030817190790F30E94BAF88032E6
:10F5300009F05ECF80910C0380FFEBC020910602A2
:10F5400030910702220F331F3093070220930602E7
:10F5500080910803909109030097F9F048E0E42EA8
:10F5600042E0F42E00E010E0F70161917F01C90153
:10F570000E9410FC20910602309107022F5F3F4F3E
:10F5800030930702209306020F5F1F4F80910803FC
:10F59000909109030817190738F384E10E9488F84D
:10F5A00080E10E9488F8FACE0E94BAF8809309039D
:10F5B0000E94BAF880930803809106029091070296
:10F5C00020910C0397FDA1C02D7F20930C03880F81
:10F5D000991F90930702809306020E94BAF885341F
:10F5E00009F48DC080910C038E7F80930C030E94E0
:10F5F000BAF8803209F0D2CE84E10E9488F8809176
:10F60000080390910903009709F440C000E010E05E
:10F61000809106029091070216C0FC0184910E941D
:10F6200088F8809106029091070201969093070254
:10F63000809306020F5F1F4F20910803309109034A
:10F640000217130718F520910C0320FD33C021FF8A
:10F65000E4CFA0E0B0E080509040AF4FBF4FABBFD1
:10F66000FC0187910E9488F8DCCF0E94BAF88032B2
:10F6700009F0BECE84E10E9488F88EE10E9488F8ED
:10F6800087E90E9488F884E00E9488F880E10E945F
:10F6900088F884CE83E00E944DF980CE82E00E94FB
:10F6A0004DF97CCE81E00E944DF978CE80E10E9438
:10F6B0004DF974CE0E9408FC0E9488F880910602E1
:10F6C0009091070201969093070280930602B2CFB1
:10F6D0000E94BAF80E94BAF8082F0E94BAF80023D4
:10F6E00009F489C0013009F48AC084E00E944DF910
:10F6F00055CE80910C03816080930C03FCCE8091E9
:10F700000C03816080930C0372CF226020930C0362
:10F710005ECF8091070287FD76C010920B0380E0D8
:10F720008BBF8091060290910702880F991F9093DA
:10F730000702809306028091080380FF09C0809130
:10F74000080390910903019690930903809308039D
:10F75000F894F999FECF1127E0910602F091070283
:10F76000C8E0D2E08091080390910903103091F431
:10F770000091570001700130D9F303E00093570066
:10F78000E8950091570001700130D9F301E1009331
:10F790005700E895099019900091570001700130C9
:10F7A000D9F301E000935700E8951395103898F0CD
:10F7B00011270091570001700130D9F305E0009343
:10F7C0005700E8950091570001700130D9F301E12D
:10F7D00000935700E8953296029709F0C7CF103092
:10F7E00011F00296E5CF112484E10E9488F880E1AF
:10F7F0000E9488F8D3CD8EE10E944DF9CFCD87E9E4
:10F800000E944DF9CBCDF1E0F0930B0381E088CF5E
:10F81000F999FECF92BD81BDF89A992780B50895D8
:10F82000262FF999FECF1FBA92BD81BD20BD0FB61C
:10F83000F894FA9AF99A0FBE01960895F894FFCFBA
:02F84000800046
:040000031000F000F9
:00000001FF
