:020000021000EC
:10F000000C949AF80C94BCF80C94BCF80C94BCF8D2
:10F010000C94BCF80C94BCF80C94BCF80C94BCF8A0
:10F020000C94BCF80C94BCF80C94BCF80C94BCF890
:10F030000C94BCF80C94BCF80C94BCF80C94BCF880
:10F040000C94BCF80C94BCF80C94BCF80C94BCF870
:10F050000C94BCF80C94BCF80C94BCF80C94BCF860
:10F060000C94BCF80C94BCF80C94BCF80C94BCF850
:10F070000C94BCF80C94BCF80C94BCF80C94BCF840
:10F080000C94BCF80C94BCF80C94BCF80C94BCF830
:10F090000C94BCF80C94BCF80C94BCF80C94BCF820
:10F0A0000C94BCF80C94BCF80C94BCF80C94BCF810
:10F0B0000C94BCF80C94BCF80C94BCF80C94BCF800
:10F0C0000C94BCF80C94BCF80C94BCF80C94BCF8F0
:10F0D0000C94BCF80C94BCF80C94BCF80C94BCF8E0
:10F0E0000C94BCF80C94BCF80C94BCF80C94BCF8D0
:10F0F0000C94BCF80C94BCF80C94BCF80C94BCF8C0
:10F100000C94BCF80C94BCF80C94BCF80C94BCF8AF
:10F110000C94BCF80C94BCF80C94BCF80C94BCF89F
:10F120000C94BCF80C94BCF80C94BCF80C94BCF88F
:10F130000C94BCF811241FBECFEFD1E8DEBFCDBFC9
:10F1400000E00CBF12E0A0E0B2E0E2EAF8EF01E07C
:10F150000BBF02C007900D92A230B107D9F71BBEBA
:10F1600013E0A2E0B2E001C01D92AD30B107E1F7BB
:10F170000E94D5F90C944FFC0C9400F89091050274
:10F18000913019F0923041F008959091C00095FFB0
:10F19000FCCF8093C60008959091C80095FFFCCFE6
:10F1A0008093CE000895CF93982F9595959595953A
:10F1B0009595905DC82FCF70CA304CF4C05D892FF3
:10F1C0000E94BEF88C2F0E94BEF8CF910895C95AB4
:10F1D000892F0E94BEF88C2F0E94BEF8CF9108950F
:10F1E000CF92DF92EF92FF9280910502813069F118
:10F1F000823031F080E0FF90EF90DF90CF90089563
:10F20000CC24DD2476018091C80087FD17C00894C6
:10F21000C11CD11CE11CF11C81E4C81682E4D80693
:10F220008FE0E80680E0F80670F3E0910202F091CA
:10F23000030219958091C80087FFE9CF8091CE0025
:10F24000FF90EF90DF90CF900895CC24DD247601DD
:10F250008091C00087FD17C00894C11CD11CE11C1F
:10F26000F11C81E4C81682E4D8068FE0E80680E04D
:10F27000F80670F3E0910202F09103021995809173
:10F28000C00087FFE9CF8091C600FF90EF90DF902C
:10F29000CF900895CF930E94F0F8C82F0E94BEF837
:10F2A000C13634F4C0330CF0C0538C2FCF91089585
:10F2B000C7558C2FCF910895CF930E944AF9C82F3C
:10F2C0000E944AF9C295C07F8C0FCF91089520917A
:10F2D0000502882339F0213031F0223061F081506D
:10F2E0008823C9F708959091C00097FFFCCF9091B3
:10F2F000C6008150F5CF9091C80097FFFCCF909148
:10F30000CE008150EDCFCF93C82F0E94F0F880320D
:10F3100081F0809104028F5F80930402853011F0A8
:10F32000CF910895E0910202F09103021995CF91D7
:10F33000089584E10E94BEF88C2F0E94BEF880E1FF
:10F340000E94BEF8EDCF0E94F0F8803271F08091FB
:10F3500004028F5F80930402853009F00895E091E4
:10F360000202F09103021995089584E10E94BEF80B
:10F3700080E10E94BEF8089515C05F9A2FEF31EE2C
:10F3800044E0215030404040E1F700C000005F9869
:10F390002FEF31EE44E0215030404040E1F700C013
:10F3A00000008150882349F70895000081E0809390
:10F3B000050280E18093C4001092C5001092C00045
:10F3C00086E08093C20088E18093C1006898709ABB
:10F3D000579A85E001C0892F5F9A2FEF31EE44E004
:10F3E000215030404040E1F700C000005F982FEF0F
:10F3F00031EE44E0215030404040E1F700C00000D1
:10F40000982F9150882339F70E94F0F88033B1F19A
:10F410008133B9F1803409F454C0813409F45AC0FD
:10F42000823409F469C0853409F46CC0803531F147
:10F43000823521F1813511F1853509F469C08635B0
:10F4400009F471C0843609F47AC0843709F4E2C043
:10F45000853709F440C1863709F44AC08091040217
:10F460008F5F80930402853079F6E0910202F0917B
:10F47000030219950E94F0F8803351F60E94A3F917
:10F48000C3CF0E94F0F8803249F784E10E94BEF8B1
:10F4900081E40E94BEF886E50E94BEF882E50E94E3
:10F4A000BEF880E20E94BEF889E40E94BEF883E5BF
:10F4B0000E94BEF880E50E94BEF880E10E94BEF87E
:10F4C000A3CF0E94F0F88638C8F20E94F0F80E949C
:10F4D000A3F99ACF0E94F0F8803809F41DC1813851
:10F4E00009F422C1823809F423C1883909F418C10A
:10F4F00080E00E9483F988CF84E10E9467F90E942E
:10F50000A3F982CF85E00E9467F90E94A3F97CCF1E
:10F510000E94F0F8809306020E94F0F880930702A0
:10F520000E94A3F971CF0E94F0F8803309F4E8C07B
:10F5300083E00E9467F980E00E9483F965CF0E9412
:10F54000F0F8809309030E94F0F8809308038091FB
:10F550000C038E7F80930C030E94F0F8853409F42D
:10F56000FDC080910803909109030097A1F068E025
:10F57000E62E62E0F62E00E010E00E94F0F8F701BF
:10F5800081937F010F5F1F4F8091080390910903C2
:10F590000817190790F30E94F0F8803209F05ECF47
:10F5A00080910C0380FFEAC020910602309107028F
:10F5B000220F331F30930702209306028091080325
:10F5C000909109030097F9F048E0E42E42E0F42E10
:10F5D00000E010E0F70161917F01C9010E9441FC48
:10F5E00020910602309107022F5F3F4F30930702B0
:10F5F000209306020F5F1F4F80910803909109032B
:10F600000817190738F384E10E94BEF880E10E94D0
:10F61000BEF8FACE0E94F0F8809309030E94F0F839
:10F6200080930803809106029091070220910C03B9
:10F6300097FDA0C02D7F20930C03880F991F9093F6
:10F640000702809306020E94F0F8853409F48CC00A
:10F6500080910C038E7F80930C030E94F0F880321F
:10F6600009F0D2CE84E10E94BEF880910803909107
:10F670000903009709F440C000E010E08091060201
:10F680009091070216C0FC0184910E94BEF88091FF
:10F69000060290910702019690930702809306025A
:10F6A0000F5F1F4F209108033091090302171307C2
:10F6B00018F520910C0320FD3FC021FFE4CFA0E00E
:10F6C000B0E080509040AF4FBF4FABBFFC0187917F
:10F6D0000E94BEF8DCCF0E94F0F8803209F0BECE66
:10F6E00084E10E94BEF88EE10E94BEF888EA0E9482
:10F6F000BEF882E00E94BEF880E10E94BEF884CE8F
:10F700000E94F0F80E94F0F8082F0E94F0F8002301
:10F7100009F4A6C00130F1F082E00E9483F974CEB2
:10F7200083E00E9483F970CE81E00E9483F96CCE61
:10F7300080E10E9483F968CE0E9439FC0E94BEF8E5
:10F7400080910602909107020196909307028093A0
:10F750000602A6CF88EA0E9483F956CE80910C0358
:10F76000816080930C03FDCE80910C0381608093B7
:10F770000C0373CF226020930C035FCF80910702AC
:10F7800087FD72C010920B0380E08BBF8091060250
:10F7900090910702880F991F9093070280930602A9
:10F7A0008091080380FF09C08091080390910903AC
:10F7B00001969093090380930803F894F999FECF7A
:10F7C0001127E0910602F0910702C8E0D2E0809193
:10F7D000080390910903103091F4009157000170D3
:10F7E0000130D9F303E000935700E89500915700EA
:10F7F00001700130D9F301E100935700E8950990B9
:10F8000019900091570001700130D9F301E0009385
:10F810005700E8951395103898F01127009157007C
:10F8200001700130D9F305E000935700E89500918D
:10F83000570001700130D9F301E100935700E895BA
:10F840003296029709F0C7CF103011F00296E5CF3B
:10F85000112484E10E94BEF880E10E94BEF8D4CD5C
:10F860008EE10E9483F9D0CDF1E0F0930B0381E0AB
:10F870008CCFF999FECF92BD81BDF89A992780B5BA
:10F880000895262FF999FECF1FBA92BD81BD20BDE4
:10F890000FB6F894FA9AF99A0FBE01960895F89463
:02F8A000FFCF98
:02F8A2008000E4
:040000031000F000F9
:00000001FF
