:020000021000EC
:10F000000C9490F80C94B0F80C94B0F80C94B0F800
:10F010000C94B0F80C94B0F80C94B0F80C94B0F8D0
:10F020000C94B0F80C94B0F80C94B0F80C94B0F8C0
:10F030000C94B0F80C94B0F80C94B0F80C94B0F8B0
:10F040000C94B0F80C94B0F80C94B0F80C94B0F8A0
:10F050000C94B0F80C94B0F80C94B0F80C94B0F890
:10F060000C94B0F80C94B0F80C94B0F80C94B0F880
:10F070000C94B0F80C94B0F80C94B0F80C94B0F870
:10F080000C94B0F80C94B0F80C94B0F80C94B0F860
:10F090000C94B0F80C94B0F80C94B0F80C94B0F850
:10F0A0000C94B0F80C94B0F80C94B0F80C94B0F840
:10F0B0000C94B0F80C94B0F80C94B0F80C94B0F830
:10F0C0000C94B0F80C94B0F80C94B0F80C94B0F820
:10F0D0000C94B0F80C94B0F80C94B0F80C94B0F810
:10F0E0000C94B0F80C94B0F80C94B0F80C94B0F800
:10F0F0000C94B0F80C94B0F80C94B0F80C94B0F8F0
:10F100000C94B0F80C94B0F80C94B0F80C94B0F8DF
:10F110000C94B0F80C94B0F80C94B0F80C94B0F8CF
:10F1200011241FBECFEFD1E4DEBFCDBF12E0A0E0BF
:10F13000B2E0E8E8F8EF01E00BBF02C007900D92E3
:10F14000A230B107D9F71BBE13E0A2E0B2E001C0C4
:10F150001D92AD30B107E1F70E94C9F90C9442FC51
:10F160000C9400F890910502913019F0923041F022
:10F1700008959091C00095FFFCCF8093C60008953C
:10F180009091C80095FFFCCF8093CE000895CF9357
:10F19000982F9595959595959595905DC82FCF70DD
:10F1A000CA304CF4C05D892F0E94B2F88C2F0E94A7
:10F1B000B2F8CF910895C95A892F0E94B2F88C2FC6
:10F1C0000E94B2F8CF910895CF92DF92EF92FF9212
:10F1D00080910502813069F1823031F080E0FF904A
:10F1E000EF90DF90CF900895CC24DD2476018091BC
:10F1F000C80087FD17C00894C11CD11CE11CF11C7C
:10F2000081E4C81682E4D8068FE0E80680E0F806BC
:10F2100070F3E0910202F091030209958091C80019
:10F2200087FFE9CF8091CE00FF90EF90DF90CF90E5
:10F230000895CC24DD2476018091C00087FD17C09D
:10F240000894C11CD11CE11CF11C81E4C81682E4A5
:10F25000D8068FE0E80680E0F80670F3E09102023D
:10F26000F091030209958091C00087FFE9CF80915A
:10F27000C600FF90EF90DF90CF900895CF930E944B
:10F28000E4F8C82F0E94B2F8C13634F4C0330CF051
:10F29000C0538C2FCF910895C7558C2FCF910895CF
:10F2A000CF930E943EF9C82F0E943EF9C295C07FBD
:10F2B0008C0FCF91089520910502882339F02130D9
:10F2C00031F0223061F081508823C9F70895909180
:10F2D000C00097FFFCCF9091C6008150F5CF909170
:10F2E000C80097FFFCCF9091CE008150EDCFCF9317
:10F2F000C82F0E94E4F8803281F0809104028F5F71
:10F3000080930402853011F0CF910895E0910202BC
:10F31000F09103020995CF91089584E10E94B2F81B
:10F320008C2F0E94B2F880E10E94B2F8EDCF0E94CB
:10F33000E4F8803271F0809104028F5F80930402C0
:10F34000853009F00895E0910202F09103020995D9
:10F35000089584E10E94B2F880E10E94B2F8089515
:10F3600015C05F9A2FEF31EE44E02150304040400D
:10F37000E1F700C000005F982FEF31EE44E021502C
:10F3800030404040E1F700C000008150882349F739
:10F390000895000081E08093050280E18093C4001D
:10F3A0001092C5001092C00086E08093C20088E1F0
:10F3B0008093C1006898709A579A85E001C0892FA0
:10F3C0005F9A2FEF31EE44E0215030404040E1F7AA
:10F3D00000C000005F982FEF31EE44E02150304034
:10F3E0004040E1F700C00000982F9150882339F782
:10F3F0000E94E4F88033B1F18133B9F1803409F42B
:10F4000054C0813409F45AC0823409F469C0853487
:10F4100009F46CC0803531F1823521F1813511F16B
:10F42000853509F469C0863509F471C0843609F45C
:10F430007AC0843709F4E2C0853709F440C18637C1
:10F4400009F44AC0809104028F5F809304028530E2
:10F4500079F6E0910202F091030209950E94E4F826
:10F46000803351F60E9497F9C3CF0E94E4F88032AE
:10F4700049F784E10E94B2F881E40E94B2F886E57F
:10F480000E94B2F882E50E94B2F880E20E94B2F8CF
:10F4900089E40E94B2F883E50E94B2F880E50E94F8
:10F4A000B2F880E10E94B2F8A3CF0E94E4F8863857
:10F4B000C8F20E94E4F80E9497F99ACF0E94E4F8FB
:10F4C000803809F425C1813809F41EC1823809F455
:10F4D00023C1883909F408C180E00E9477F988CFF8
:10F4E00084E10E945BF90E9497F982CF85E00E9437
:10F4F0005BF90E9497F97CCF0E94E4F880930602A2
:10F500000E94E4F8809307020E9497F971CF0E944D
:10F51000E4F8803309F4ECC083E00E945BF980E0FA
:10F520000E9477F965CF0E94E4F8809309030E9456
:10F53000E4F88093080380910C038E7F80930C0382
:10F540000E94E4F8853409F4FDC08091080390918D
:10F5500009030097A1F068E0E62E62E0F62E00E0D5
:10F5600010E00E94E4F8F70181937F010F5F1F4FC5
:10F5700080910803909109030817190790F30E94DE
:10F58000E4F8803209F05ECF80910C0380FFEAC07E
:10F590002091060230910702220F331F3093070299
:10F5A0002093060280910803909109030097F9F0D7
:10F5B00048E0E42E42E0F42E00E010E0F701619113
:10F5C0007F01C9010E9434FC20910602309107029C
:10F5D0002F5F3F4F30930702209306020F5F1F4FAC
:10F5E00080910803909109030817190738F384E103
:10F5F0000E94B2F880E10E94B2F8FACE0E94E4F8CC
:10F60000809309030E94E4F8809308038091060226
:10F610009091070220910C0397FDA0C02D7F2093AD
:10F620000C03880F991F90930702809306020E9493
:10F63000E4F8853409F48CC080910C038E7F8093AC
:10F640000C030E94E4F8803209F0D2CE84E10E94DB
:10F65000B2F88091080390910903009709F440C023
:10F6600000E010E0809106029091070216C0FC01B4
:10F6700084910E94B2F8809106029091070201964F
:10F6800090930702809306020F5F1F4F209108039B
:10F69000309109030217130718F520910C0320FD80
:10F6A0003FC021FFE4CFA0E0B0E080509040AF4FDA
:10F6B000BF4FABBFFC0187910E94B2F8DCCF0E9424
:10F6C000E4F8803209F0BECE84E10E94B2F88EE107
:10F6D0000E94B2F887EA0E94B2F881E00E94B2F874
:10F6E00080E10E94B2F884CE83E00E9477F980CE58
:10F6F0000E94E4F80E94E4F8082F0E94E4F8002336
:10F7000009F4A2C00130D1F081E00E9477F970CEF7
:10F7100082E00E9477F96CCE80E10E9477F968CE92
:10F720000E942CFC0E94B2F8809106029091070280
:10F7300001969093070280930602A6CF87EA0E9463
:10F7400077F956CE80910C03816080930C03FDCE37
:10F7500080910C03816080930C0373CF226020930F
:10F760000C035FCF8091070287FD72C010920B03DC
:10F7700080E08BBF8091060290910702880F991F4D
:10F7800090930702809306028091080380FF09C0CE
:10F790008091080390910903019690930903809347
:10F7A0000803F894F999FECF1127E0910602F09131
:10F7B0000702C8E0D2E0809108039091090310305D
:10F7C00091F40091570001700130D9F303E00093E8
:10F7D0005700E8950091570001700130D9F301E11D
:10F7E00000935700E8950990199000915700017017
:10F7F0000130D9F301E000935700E89513951038D4
:10F8000098F011270091570001700130D9F305E0FD
:10F8100000935700E8950091570001700130D9F32B
:10F8200001E100935700E8953296029709F0C7CF9F
:10F83000103011F00296E5CF112484E10E94B2F855
:10F8400080E10E94B2F8D4CD8EE10E9477F9D0CD4C
:10F8500081E080930B038DCFF999FECF92BD81BDDE
:10F86000F89A992780B50895262FF999FECF1FBAE7
:10F8700092BD81BD20BD0FB6F894FA9AF99A0FBED9
:08F8800001960895F894FFCFF2
:02F888008000FE
:040000031000F000F9
:00000001FF
