:020000021000EC
:10F000000C9466F80C9485F80C9485F80C9485F8AB
:10F010000C9485F80C9485F80C9485F80C9485F87C
:10F020000C9485F80C9485F80C9485F80C9485F86C
:10F030000C9485F80C9485F80C9485F80C9485F85C
:10F040000C9485F80C9485F80C9485F80C9485F84C
:10F050000C9485F80C9485F80C9485F80C9485F83C
:10F060000C9485F80C9485F80C9485F80C9485F82C
:10F070000C9485F80C9485F80C9485F80C9485F81C
:10F080000C9485F80C9485F80C9485F80C9485F80C
:10F090000C9485F80C9485F80C9485F80C9485F8FC
:10F0A0000C9485F80C9485F80C9485F80C9485F8EC
:10F0B0000C9485F80C9485F80C9485F80C9485F8DC
:10F0C0000C9485F80C9485F80C9485F811241FBED7
:10F0D000CFEFD1E2DEBFCDBF12E0A0E0B2E0ECE1C5
:10F0E000F8EF01E00BBF02C007900D92A230B1070C
:10F0F000D9F713E0A2E0B2E001C01D92AD30B10734
:10F10000E1F70E94A2F90C940CFC0C9400F8982FE3
:10F1100080910202813019F0823041F0089580918F
:10F12000C00085FFFCCF9093C60008958091C80071
:10F1300085FFFCCF9093CE0008951F93982F95954F
:10F14000959595959595905D8F708A3054F4182F0C
:10F15000105D892F0E9487F8812F0E9487F81F91E8
:10F160000895182F195A892F0E9487F8812F0E941D
:10F1700087F81F910895EF92FF920F931F9380914C
:10F180000202813069F1823031F080E01F910F91ED
:10F19000FF90EF900895EE24FF2487018091C8002E
:10F1A00087FD17C00894E11CF11C011D111D81E0B1
:10F1B000E81688E0F80687E0080780E0180770F393
:10F1C000E0910402F091050209958091C80087FF43
:10F1D000E9CF8091CE001F910F91FF90EF9008959D
:10F1E000EE24FF2487018091C00087FD17C008949A
:10F1F000E11CF11C011D111D81E0E81688E0F806F4
:10F2000087E0080780E0180770F3E0910402F091AE
:10F21000050209958091C00087FFE9CF8091C60063
:10F220001F910F91FF90EF9008951F930E94BBF8DC
:10F23000182F0E9487F8113634F410330CF0105355
:10F24000812F1F9108951755812F1F9108951F93A6
:10F250000E9415F9182F0E9415F91295107F810F41
:10F260001F910895982F20910202992339F021309F
:10F2700031F0223061F091509923C9F708958091BF
:10F28000C00087FFFCCF8091C6009150F5CF8091E0
:10F29000C80087FFFCCF8091CE009150EDCF1F9327
:10F2A000182F0E94BBF8803281F0809103028F5F9B
:10F2B00080930302853011F01F910895E0910402BC
:10F2C000F091050209951F91089584E10E9487F845
:10F2D000812F0E9487F880E10E9487F81F9108958E
:10F2E0000E94BBF8803271F0809103028F5F80939F
:10F2F0000302853009F00895E0910402F0910502BF
:10F300000995089584E10E9487F880E10E9487F8BA
:10F31000089548EB50E08823A1F0109A28EE33E0DE
:10F32000FA013197F1F721503040D1F7109828EECB
:10F3300033E0FA013197F1F721503040D1F7815095
:10F3400061F70895FF920F931F93CF93DF9300000F
:10F3500081E08093020287E08093C4001092C50090
:10F360001092C00086E08093C20088E18093C100C3
:10F370006898709A089A86E00E9489F9FF24F394AD
:10F380000E94BBF88033B1F18133B9F1803409F4C4
:10F3900054C0813409F45AC0823409F469C08534F8
:10F3A00009F46CC0803531F1823521F1813511F1DC
:10F3B000853509F469C0863509F471C0843609F4CD
:10F3C0007AC0843709F4E4C0853709F448C1863728
:10F3D00009F44AC0809103028F5F80930302853055
:10F3E00079F6E0910402F091050209950E94BBF8BC
:10F3F000803351F60E9470F9C3CF0E94BBF880326F
:10F4000049F784E10E9487F881E40E9487F886E545
:10F410000E9487F882E50E9487F880E20E9487F8C0
:10F4200089E40E9487F883E50E9487F880E50E94BE
:10F4300087F880E10E9487F8A3CF0E94BBF8863846
:10F44000C8F20E94BBF80E9470F99ACF0E94BBF8E4
:10F45000803809F499C0813809F4FDC0823809F474
:10F4600013C1883909F48CC080E00E944FF988CF1D
:10F4700084E10E9432F90E9470F982CF85E00E94F7
:10F4800032F90E9470F97CCF0E94BBF8809306028B
:10F490000E94BBF8809307020E9470F971CF0E940E
:10F4A000BBF8803309F404C183E00E9432F980E0A4
:10F4B0000E944FF965CF0E94BBF8809309030E9418
:10F4C000BBF88093080380910C038E7F80930C031C
:10F4D0000E94BBF8853409F4FCC080910803909128
:10F4E0000903892B89F000E010E00E94BBF8F801C5
:10F4F000E85FFD4F80830F5F1F4F8091080390915D
:10F5000009030817190788F30E94BBF8803209F035
:10F5100061CF80910C0380FFEEC0209106023091F4
:10F520000702220F331F30930702209306028091B7
:10F53000080390910903892BE1F000E010E0F80145
:10F54000E85FFD4FC90160810E94FEFB2091060229
:10F55000309107022F5F3F4F30930702209306023E
:10F560000F5F1F4F80910803909109030817190737
:10F5700030F384E10E9487F880E10E9487F800CF91
:10F5800083E00E944FF9FCCE82E00E944FF9F8CE52
:10F590000E94BBF8809309030E94BBF88093080384
:10F5A000209106023091070237FD9FC080910C0325
:10F5B0008D7F80930C03220F331F3093070220931B
:10F5C00006020E94BBF8853409F489C080910C03BF
:10F5D0008E7F80930C030E94BBF8803209F0D0CE5E
:10F5E00084E10E9487F88091080390910903892B98
:10F5F00009F446C000E010E02091060230910702B5
:10F6000017C0F90184910E9487F820910602309179
:10F6100007022F5F3F4F30930702209306020F5FD0
:10F620001F4F80910803909109030817190740F5AF
:10F6300080910C0380FD2CC081FFE3CFC901A0E0C5
:10F64000B0E080509040AF4FBF4FABBFFC018791FF
:10F650000E9487F8DACF81E00E944FF991CE0E9494
:10F66000BBF8803209F0B6CE84E10E9487F88EE1C3
:10F670000E9487F887E90E9487F884E00E9487F853
:10F6800080E10E9487F87CCE80E10E944FF978CE1D
:10F69000C9010E94F6FB0E9487F820910602309172
:10F6A00007022F5F3F4F3093070220930602B7CF28
:10F6B0000E94BBF80E94BBF8182F0E94BBF81123D0
:10F6C00009F48CC0113009F48DC084E00E944FF918
:10F6D00057CE80910C03816080930C03FECE809105
:10F6E0000C03816080930C0376CF80910C038260C1
:10F6F00080930C0360CF809107028823880F880BCA
:10F700008F2180930B038BBF80910602909107029B
:10F71000880F991F90930702809306028091080337
:10F7200080FF09C08091080390910903019690938E
:10F73000090380930803F894F999FECF1127E0910B
:10F740000602F0910702C8E0D2E080910803909190
:10F750000903103091F40091570001700130D9F382
:10F7600003E000935700E8950091570001700130C5
:10F77000D9F301E100935700E895099019900091A1
:10F78000570001700130D9F301E000935700E8956C
:10F790001395103898F0112700915700017001302F
:10F7A000D9F305E000935700E895009157000170E8
:10F7B0000130D9F301E100935700E89532960297A2
:10F7C00009F0C7CF103011F00296E5CF112484E183
:10F7D0000E9487F880E10E9487F8D2CD8EE10E94D6
:10F7E0004FF9CECD87E90E944FF9CACDF999FECFE6
:10F7F00092BD81BDF89A992780B50895262FF99971
:10F80000FECF1FBA92BD81BD20BD0FB6F894FA9A03
:0CF81000F99A0FBE01960895F894FFCFFE
:02F81C0080006A
:040000031000F000F9
:00000001FF
