:020000021000EC
:10F000000C9446F80C9466F80C9466F80C9466F828
:10F010000C9466F80C9466F80C9466F80C9466F8F8
:10F020000C9466F80C9466F80C9466F80C9466F8E8
:10F030000C9466F80C9466F80C9466F80C9466F8D8
:10F040000C9466F80C9466F80C9466F80C9466F8C8
:10F050000C9466F80C9466F80C9466F80C9466F8B8
:10F060000C9466F80C9466F80C9466F80C9466F8A8
:10F070000C9466F80C9466F80C9466F80C9466F898
:10F080000C9466F80C9466F80C9466F811241FBE74
:10F09000CFEFD0E4DEBFCDBF11E0A0E0B1E0E0E013
:10F0A000F8EF01E00BBF02C007900D92A230B1074C
:10F0B000D9F71BBE12E0A2E0B1E001C01D92AD3055
:10F0C000B107E1F70E947FF90C94FEFB0C9400F865
:10F0D00090910501913019F0923041F0089590918E
:10F0E000C00095FFFCCF8093C60008959091C800A2
:10F0F00095FFFCCF8093CE000895CF93982F9595E0
:10F10000959595959595905DC82FCF70CA304CF424
:10F11000C05D892F0E9468F88C2F0E9468F8CF91FB
:10F120000895C95A892F0E9468F88C2F0E9468F8A8
:10F13000CF910895CF92DF92EF92FF9280910501D7
:10F14000813069F1823031F080E0FF90EF90DF9004
:10F15000CF900895CC24DD2476018091C80087FDEE
:10F1600017C00894C11CD11CE11CF11C81E0C81619
:10F1700089E0D8068DE3E80680E0F80670F3E091B8
:10F180000201F091030109958091C80087FFE9CF42
:10F190008091CE00FF90EF90DF90CF900895CC2427
:10F1A000DD2476018091C00087FD17C00894C11C42
:10F1B000D11CE11CF11C81E0C81689E0D8068DE362
:10F1C000E80680E0F80670F3E0910201F091030197
:10F1D00009958091C00087FFE9CF8091C600FF901C
:10F1E000EF90DF90CF900895CF930E949AF8C82FA8
:10F1F0000E9468F8C13634F4C0330CF0C0538C2F31
:10F20000CF910895C7558C2FCF910895CF930E9429
:10F21000F4F8C82F0E94F4F8C295C07F8C0FCF91EC
:10F22000089520910501882339F0213031F02230F2
:10F2300061F081508823C9F708959091C00097FF2D
:10F24000FCCF9091C6008150F5CF9091C80097FFF8
:10F25000FCCF9091CE008150EDCFCF93C82F0E946C
:10F260009AF8803281F0809104018F5F80930401CD
:10F27000853011F0CF910895E0910201F0910301E2
:10F280000995CF91089584E10E9468F88C2F0E941F
:10F2900068F880E10E9468F8EDCF0E949AF8803209
:10F2A00071F0809104018F5F80930401853009F033
:10F2B0000895E0910201F09103010995089584E118
:10F2C0000E9468F880E10E9468F8089515C0159AB8
:10F2D0002FEF30E742E0215030404040E1F700C0DE
:10F2E000000015982FEF30E742E0215030404040B9
:10F2F000E1F700C000008150882349F7089500001D
:10F3000081E0809305018CE08093C4001092C500D9
:10F310001092C00086E08093C20088E18093C10013
:10F320005098589A0D9A83E001C0892F159A2FEFB3
:10F3300030E742E0215030404040E1F700C000009B
:10F3400015982FEF30E742E0215030404040E1F780
:10F3500000C00000982F9150882339F70E949AF836
:10F360008033B1F18133B9F1803409F454C0813470
:10F3700009F45AC0823409F469C0853409F46CC0B8
:10F38000803531F1823521F1813511F1853509F46E
:10F3900069C0863509F471C0843609F47AC08437AF
:10F3A00009F4E2C0853709F440C1863709F44AC040
:10F3B000809104018F5F80930401853079F6E0919C
:10F3C0000201F091030109950E949AF8803351F6E9
:10F3D0000E944DF9C3CF0E949AF8803249F784E128
:10F3E0000E9468F881E40E9468F886E50E9468F847
:10F3F00082E50E9468F880E20E9468F889E40E9431
:10F4000068F883E50E9468F880E50E9468F880E16A
:10F410000E9468F8A3CF0E949AF88638C8F20E942A
:10F420009AF80E944DF99ACF0E949AF8803809F410
:10F4300015C1813809F416C1823809F417C1883919
:10F4400009F408C180E00E942DF988CF84E10E9470
:10F4500011F90E944DF982CF85E00E9411F90E94B6
:10F460004DF97CCF0E949AF8809306010E949AF889
:10F47000809307010E944DF971CF0E949AF8803362
:10F4800009F406C183E00E9411F980E00E942DF981
:10F4900065CF0E949AF8809309020E949AF880939F
:10F4A000080280910C028E7F80930C020E949AF8D1
:10F4B000853409F4FEC080910802909109020097FA
:10F4C000A1F068E0E62E61E0F62E00E010E00E9478
:10F4D0009AF8F70181937F010F5F1F4F8091080217
:10F4E000909109020817190790F30E949AF8803248
:10F4F00009F05ECF80910C0280FFEBC020910601E5
:10F5000030910701220F331F30930701209306012A
:10F5100080910802909109020097F9F048E0E42EEA
:10F5200041E0F42E00E010E0F70161917F01C90194
:10F530000E94F0FB20910601309107012F5F3F4FA1
:10F5400030930701209306010F5F1F4F809108023F
:10F55000909109020817190738F384E10E9468F8AE
:10F5600080E10E9468F8FACE0E949AF8809309021E
:10F570000E949AF8809308028091060190910701F9
:10F5800020910C0297FDA1C02D7F20930C02880FC3
:10F59000991F90930701809306010E949AF8853481
:10F5A00009F48DC080910C028E7F80930C020E9422
:10F5B0009AF8803209F0D2CE84E10E9468F88091F6
:10F5C000080290910902009709F440C000E010E0A1
:10F5D000809106019091070116C0FC0184910E9460
:10F5E00068F88091060190910701019690930701B8
:10F5F000809306010F5F1F4F20910802309109028E
:10F600000217130718F520910C0220FD33C021FFCB
:10F61000E4CFA0E0B0E080509040AF4FBF4FABBF11
:10F62000FC0187910E9468F8DCCF0E949AF8803232
:10F6300009F0BECE84E10E9468F88EE10E9468F86D
:10F6400087E90E9468F885E00E9468F880E10E94DE
:10F6500068F884CE83E00E942DF980CE82E00E947B
:10F660002DF97CCE81E00E942DF978CE80E10E94B8
:10F670002DF974CE0E94E8FB0E9468F88091060183
:10F680009091070101969093070180930601B2CFF4
:10F690000E949AF80E949AF8082F0E949AF8002374
:10F6A00009F489C0013009F48AC085E00E942DF96F
:10F6B00055CE80910C02816080930C02FCCE80912B
:10F6C0000C02816080930C0272CF226020930C02A6
:10F6D0005ECF8091070187FD76C010920B0280E01B
:10F6E0008BBF8091060190910701880F991F90931D
:10F6F0000701809306018091080280FF09C0809174
:10F7000008029091090201969093090280930802E1
:10F71000F894F999FECF1127E0910601F0910701C5
:10F72000C8E0D1E08091080290910902103091F474
:10F730000091570001700130D9F303E000935700A6
:10F74000E8950091570001700130D9F301E1009371
:10F750005700E89509901990009157000170013009
:10F76000D9F301E000935700E8951395103898F00D
:10F7700011270091570001700130D9F305E0009383
:10F780005700E8950091570001700130D9F301E16D
:10F7900000935700E8953296029709F0C7CF1030D2
:10F7A00011F00296E5CF112484E10E9468F880E10F
:10F7B0000E9468F8D3CD8EE10E942DF9CFCD87E964
:10F7C0000E942DF9CBCDF1E0F0930B0281E088CFC0
:10F7D000F999FECF92BD81BDF89A992780B5089519
:10F7E000262FF999FECF1FBA92BD81BD20BD0FB65D
:10F7F000F894FA9AF99A0FBE01960895F894FFCFFB
:02F80000800086
:040000031000F000F9
:00000001FF
